:100000000C9478000C9495000C9495000C94950039
:100010000C9495000C9495000C94C6080C949500D3
:100020000C9495000C9495000C9495000C9411057B
:100030000C9495000C9495000C9495000C949500EC
:100040000C9495000C9495000C9438060C9463065F
:100050000C9495000C9495000C9495000C949500CC
:100060000C9495000C949500A600AD00AF00B5006F
:10007000BC00C100C400C700D500CF00360142015A
:100080004901550174015901790174017F019F01F2
:100090009A01A5015C02D001F101D601F701F1013D
:1000A000FD011E02180224025C02570274047F0440
:1000B0007F04BD0482049304950495049804950478
:1000C00095049B04950495049E04B304BB04BB04EF
:1000D000B604BB04BB04B904BB04BB04CC11CC11F3
:1000E000CC119111F6110412CC11CC119111F61111
:1000F00011241FBECFEFD8E0DEBFCDBF11E0A0E0DE
:10010000B1E0EAE3F7E202C005900D92A633B10731
:10011000D9F722E0A6E3B1E001C01D92AE30B207EC
:10012000E1F70E94C4040C949B130C9400008130EE
:1001300011F4299A08952998089590E08A3091053C
:10014000A0F5FC01EC5CFF4F0C9458125A9A5B9A94
:100150005C9A5D9A5E9A5F9A20C05A9819C05A9A22
:100160005B9A5C985D9A5E9A05C05A9A5B9A5C9A13
:100170005D9A5E985F981FC05A985B9A5C9A5D98EA
:1001800012C05A9A5B980DC05A9A5B9810C05A9A3E
:100190005B9A5C9A5D985E985F98289808955A9A41
:1001A0005B9A5C9A5D9A5E9805C05A9A5B9A5C9AD3
:1001B0005D9A5E9A5F9A289A0895809108028093CA
:1001C0000902329B03C032990DC016C0339BFBCF8E
:1001D0008FE99FE00197F1F700C000003299F3CF5B
:1001E0008FE00895339908C08FE99FE00197F1F7F8
:1001F00000C00000339B02C08FEF089580EF089588
:10020000CF93DF9300D0CDB7DEB70E944B0D9A831A
:10021000898315E186E1D82E97E1C92E20EDA22E23
:1002200027E0B22E02E133E1732E44E1642E5FE059
:10023000F52E60E1562E71E1472EEBE0EE2EF8EE42
:100240008F2EF3E09F2E0E94DD0080930802E09144
:1002500040018E2F90E08831910508F033C1FC01F8
:10026000E25CFF4F809108020C9458128F3019F411
:1002700081E08093400180910802803F09F022C113
:1002800084E004C08F3F09F01DC182E080934001EB
:1002900019C18F3019F483E08093400180910802E6
:1002A000803F09F00FC18EE0F1CF8F3F09F00AC106
:1002B00007C18F3091F4809109028F3F71F48091D2
:1002C0003C018F5F80933C0180913C01883110F0AC
:1002D00010923C0187E08093400180910802803FAA
:1002E00009F0F0C086E0D2CF8F3F09F0EBC085E087
:1002F000CDCF8F3F09F0E6C0109206011EC08F30AF
:1003000091F4809109028F3F71F480913B018F5FDE
:1003100080933B0180913B018C3310F010923B01A4
:100320008AE08093400180910802803F09F0CAC0B2
:1003300089E0ACCF8F3F09F0C5C088E0A7CF8F3FE1
:1003400009F0C0C0109207012EC08F3091F4809147
:1003500009028F3F71F480913A018F5F80933A01D7
:1003600080913A018C3310F010923A018DE0809325
:10037000400180910802803F09F0A4C090921101D1
:100380008092100180913C0180933F0180913B015C
:1003900080933E0180913A0180933D018CE076CFBD
:1003A0008F3F09F08FC0E09240018CC08F3089F4FC
:1003B000809109028F3F69F4809108018F5F8093DB
:1003C000080180910801803210F0109208014092DB
:1003D000400180910802803F09F074C050924001B2
:1003E00071C08F3F09F06EC0F09240016BC08F3F2B
:1003F00009F068C0109206011EC08F3089F4809108
:1004000009028F3F69F4809109018F5F8093090190
:10041000809109018D3010F0109209016092400125
:1004200080910802803F09F04DC0709240014AC09F
:100430008F3F09F047C00093400144C08F3F09F04F
:1004400041C01092070135C08F30D1F4809109026C
:100450008F3FB1F480910A0190910B010196909326
:100460000B0180930A0180910A0190910B01843362
:10047000984020F0B0920B01A0920A01C092400176
:1004800080910802803FF1F48091080180930C0173
:100490008091090180930D0180910A0190910B01D7
:1004A00090930F0180930E01D09240010BC08F3FBB
:1004B00049F41093400106C08F3F21F41092390196
:1004C0001092400160E070E0CE0101960E94700E33
:1004D000BACECF9380913D01CAE06C2F0E943812B2
:1004E000892F0E949D00809139010E9497004098B9
:1004F0008FE99FE00197F1F700C00000409A8091DA
:100500003D016C2F0E9438120E949D00809138019D
:100510000E94970041988FE99FE00197F1F700C092
:100520000000419A80913E016C2F0E943812892F61
:100530000E949D00809107010E9497002D988FE9ED
:100540009FE00197F1F700C000002D9A80913E01D5
:100550006C2F0E9438120E949D00809137010E94EA
:1005600097002C988FE99FE00197F1F700C00000F9
:100570002C9A80913F016C2F0E943812892F0E9483
:100580009D00809106010E9497002B988FE99FE0C3
:100590000197F1F700C000002B9A80913F016C2F6A
:1005A0000E9438120E949D00809136010E9497009F
:1005B0002A988FE99FE00197F1F700C000002A9A7E
:1005C000CF910895CF9380913A01CAE06C2F0E9499
:1005D0003812892F0E949D00809139010E94970056
:1005E00040988FE99FE00197F1F700C00000409A22
:1005F00080913A016C2F0E9438120E949D008091D8
:1006000038010E94970041988FE99FE00197F1F728
:1006100000C00000419A80913B016C2F0E9438126B
:10062000892F0E949D00809107010E9497002D98BC
:100630008FE99FE00197F1F700C000002D9A8091AB
:100640003B016C2F0E9438120E949D00809137015F
:100650000E9497002C988FE99FE00197F1F700C066
:1006600000002C9A80913C016C2F0E943812892F37
:100670000E949D00809106010E9497002B988FE9AF
:100680009FE00197F1F700C000002B9A80913C0198
:100690006C2F0E9438120E949D00809136010E94AA
:1006A00097002A988FE99FE00197F1F700C00000BA
:1006B0002A9ACF910895CF93DF9380910E01909164
:1006C0000F01CAE0D0E0BE010E9444120E949D00CA
:1006D000809139010E94970040988FE99FE001972F
:1006E000F1F700C00000409A80910E0190910F0137
:1006F000BE010E94441288E3860F0E949D008091F3
:1007000038010E94970041988FE99FE00197F1F727
:1007100000C00000419A80910D016C2F0E94381298
:10072000892F0E949D00809107010E9497002D98BB
:100730008FE99FE00197F1F700C000002D9A8091AA
:100740000D016C2F0E9438120E949D00809137018C
:100750000E9497002C988FE99FE00197F1F700C065
:1007600000002C9A80910C016C2F0E943812892F66
:100770000E949D00809106010E9497002B988FE9AE
:100780009FE00197F1F700C000002B9A80910C01C7
:100790006C2F0E9438120E949D00809136010E94A9
:1007A00097002A988FE99FE00197F1F700C00000B9
:1007B0002A9ADF91CF910895CF93DF9380910A0118
:1007C00090910B01CAE0D0E0BE010E9444120E9449
:1007D0009D00809139010E94970040988FE99FE029
:1007E0000197F1F700C00000409A80910A019091B2
:1007F0000B01BE010E94441288E3860F0E949D00F7
:10080000809138010E94970041988FE99FE00197FD
:10081000F1F700C00000419A809109016C2F0E94FD
:100820003812892F0E949D00809107010E94970035
:100830002D988FE99FE00197F1F700C000002D9AF5
:10084000809109016C2F0E9438120E949D008091B6
:1008500037010E9497002C988FE99FE00197F1F7EC
:1008600000C000002C9A809108016C2F0E94381261
:10087000892F0E949D00809106010E9497002B986D
:100880008FE99FE00197F1F700C000002B9A80915B
:1008900008016C2F0E9438120E949D008091360141
:1008A0000E9497002A988FE99FE00197F1F700C016
:1008B00000002A9ADF91CF910895CF93DF9300D063
:1008C000CDB7DEB70E944B0D9A83898311E0E0918A
:1008D00040018E2F90E08831910508F04EC0FC0158
:1008E000EA5AFF4F0C9458121092390110923801B5
:1008F00010923701109236010E9469023EC00E9498
:100900005B033BC0109207011092060180913F01EA
:1009100080933C0180913E0180933B0180913D0199
:1009200080933A0102C0109306010E94E20225C0A2
:1009300010930701FACF10933901F7CF10920701F6
:100940001092060180910C018093080180910D01A5
:100950008093090180910E0190910F0190930B01FA
:1009600080930A0108C01093060105C01093070187
:1009700002C0109339010E94DC0360E070E0CE01F8
:1009800001960E94700EA3CF3C9A44983A98429ADE
:100990003B98439A529A539A549A559A569A579A10
:1009A000209A219A389A399A259A249A239A229A37
:1009B0005A985B985C985D985E985F9828982998FB
:1009C000409A419A2D9A2C9A2B9A2A9A8BE08093DE
:1009D000810089EF90E0909389008093880082E005
:1009E00080936F0087E690E00E948D067894E12C5A
:1009F000F12C03E020E030E040E051E062E171E002
:100A000080E091E00E94100C20E030E040E051E0F6
:100A10006CE171E08DE594E00E94100C0E94170DCE
:100A2000FFCF1F920F920FB60F9211245F936F9317
:100A30007F938F939F93AF93BF9380911001909179
:100A40001101892B49F080911001909111010197BA
:100A500090931101809310018091100190911101E8
:100A6000892B09F0F9C080913D018F5F80933D0192
:100A700080914001882321F080914001823049F427
:100A800080913D0180FD05C081E080930701809346
:100A9000060180914001882321F08091400182303D
:100AA00041F480913D0180FF04C010920701109233
:100AB000060180913D018C3338F010923D01809108
:100AC0003E018F5F80933E0180913E018C3338F070
:100AD00010923E0180913F018F5F80933F01809192
:100AE0003F01883138F010923F0180910C018F5FF7
:100AF00080930C0180910D01823041F580910E01AF
:100B000090910F0183709927892B51F480910E01E8
:100B100090910F0164E670E00E944412892B51F419
:100B200080910E0190910F0160E971E00E944412E2
:100B3000892B61F480910C018E3140F081E080932B
:100B40000C0180910D018F5F80930D0180910D014B
:100B5000823041F580910E0190910F0183709927A9
:100B6000892BA1F480910E0190910F0164E670E051
:100B70000E944412892BB1F480910E0190910F01D3
:100B800060E971E00E944412892B61F080910C01B0
:100B90008D3140F081E080930C0180910D018F5FD9
:100BA00080930D0180910D018130C1F080910D0184
:100BB0008330A1F080910D01853081F080910D018D
:100BC000873061F080910D01883041F080910D01F6
:100BD0008A3021F080910D018C3061F480910C01FC
:100BE000803240F081E080930C0180910D018F5F95
:100BF00080930D0180910D01843061F080910D0191
:100C0000863041F080910D01893021F080910D01F5
:100C10008B3061F480910C018F3140F081E0809342
:100C20000C0180910D018F5F80930D0180910D016A
:100C30008D3060F081E080930D0180910E019091E4
:100C40000F01019690930F0180930E0188EE93E0BF
:100C50009093110180931001BF91AF919F918F915B
:100C60007F916F915F910F900FBE0F901F9018951D
:100C70001F920F920FB60F9211242F938F939F9371
:100C8000EF93FF938091C0009091C6008871E0912E
:100C90004301EF5FEF7120914201E21739F0E093D9
:100CA0004301F0E0EA5BFE4F908301C082E0809355
:100CB0004101FF91EF919F918F912F910F900FBE66
:100CC0000F901F9018951F920F920FB60F9211243C
:100CD0008F939F93EF93FF939091450180914401EF
:100CE000981769F0E0914401EF5FEF71E0934401E0
:100CF000F0E0EA59FE4F80818093C60005C08091E4
:100D0000C1008F7D8093C100FF91EF919F918F91E2
:100D10000F900FBE0F901F901895109245011092E2
:100D20004401109243011092420197FF04C022E057
:100D30002093C0009F779093C5008093C40088E9FA
:100D40008093C10086E08093C20008958FE3809372
:100D50007E0080B7877F80BF80B7806880BF83B701
:100D6000817F83BF0FB6F8940F9283B7816083BFF2
:100D700085B7806685BF8F7D85BF0F900FBE889534
:100D800013BE0895259A2D9A2FEF80E792E0215007
:100D900080409040E1F700C000001D9AF5CF259AF1
:100DA0002D9A2FEF87EA91E6215080409040E1F79D
:100DB00000C000001D9AF5CFFC0103969283818349
:100DC0002FEF3FEF34832383968385839087878338
:100DD00010820895FC01118610860895CF93DF9349
:100DE0009C01FB01DC011196CD91DC911297D3831C
:100DF000C2838C819D81958384838C819D81DC015C
:100E000013967C936E9312977D836C833187208732
:100E1000F90180818F5F8083DF91CF9108950F93D7
:100E20001F93CF93DF938C01FB01808191818F3FD2
:100E30002FEF920721F4E801AF81B8850EC0D801E9
:100E4000139612962D913C911397E901488159818F
:100E50008417950710F0D901F4CF12968D919C91CB
:100E6000139793838283EC01FD83EC83B583A48382
:100E70001396FC93EE93129711870087F8018081F7
:100E80008F5F8083DF91CF911F910F910895CF9352
:100E9000DF93FC01A085B185828193812481358116
:100EA000EC013D832C83C481D5819B838A83119679
:100EB0008D919C9112978E179F0721F41296DC93C7
:100EC000CE931197118610868C9181508C938C91C2
:100ED000DF91CF91089531E1FC013083319722E217
:100EE00020833197A3E3A083319760833197708388
:100EF00031971082319760E8608331971082319783
:100F000062E06083319763E06083319764E06083DF
:100F1000319765E06083319766E06083319767E0E1
:100F20006083319768E06083319769E0608331972F
:100F300060E1608331973083319732E130833197BC
:100F400033E13083319734E13083319735E13083B9
:100F5000319736E13083319737E13083319738E18B
:100F60003083319739E13083319730E230833197E4
:100F700031E2308331972083319723E22083319708
:100F8000408331975083319726E22083319727E2BF
:100F90002083319728E22083319729E220833197FB
:100FA00020E32083319721E3208386970895A89535
:100FB00020EC88E190E00FB6F894A895809360004B
:100FC0000FBE20936000A091EA01B091EB01CD919A
:100FD000CDBFDD91DEBFFF91EF91DF91CF91BF914A
:100FE000AF919F918F917F916F915F914F913F91C1
:100FF0002F911F910F91FF90EF90DF90CF90BF90B6
:10100000AF909F908F907F906F905F904F903F90A8
:101010002F901F900F900FBE0F90089581E00895BC
:101020000F920FB6F8940F921F9211242F923F92B5
:101030004F925F926F927F928F929F92AF92BF92E8
:10104000CF92DF92EF92FF920F931F932F933F93D4
:101050004F935F936F937F938F939F93AF93BF93C0
:10106000CF93DF93EF93FF93A091EA01B091EB014F
:101070000DB60D920EB60D920E94A80EA091EA0137
:10108000B091EB01CD91CDBFDD91DEBFFF91EF912E
:10109000DF91CF91BF91AF919F918F917F916F9190
:1010A0005F914F913F912F911F910F91FF90EF9082
:1010B000DF90CF90BF90AF909F908F907F906F9078
:1010C0005F904F903F902F901F900F900FBE0F900A
:1010D00008950F920FB6F8940F921F9211242F9239
:1010E0003F924F925F926F927F928F929F92AF92B8
:1010F000BF92CF92DF92EF92FF920F931F932F93A5
:101100003F934F935F936F937F938F939F93AF938F
:10111000BF93CF93DF93EF93FF93A091EA01B09138
:10112000EB010DB60D920EB60D9213BE0E94550D39
:1011300081110E94A80EA091EA01B091EB01CD911E
:10114000CDBFDD91DEBFFF91EF91DF91CF91BF91D8
:10115000AF919F918F917F916F915F914F913F914F
:101160002F911F910F91FF90EF90DF90CF90BF9044
:10117000AF909F908F907F906F905F904F903F9037
:101180002F901F900F900FBE0F9008950E94690836
:1011900018950FB6F8940F92FC01928D0F900FBE28
:1011A00081E0911180E008950F931F93CF93DF9317
:1011B000EC01042F1A8D8C8D81110CC088819981CE
:1011C000892B09F03EC08A819B810E94CB0F1B8234
:1011D0001A8238C0482F50E0011115C08C819D81C2
:1011E0000E948B132C8D8C819D81820F911D9D837C
:1011F0008C832A813B818217930718F1888199811A
:101200009D838C831EC08E819F810E948B138C8D49
:1012100090E09195819591092E813F81280F391F8A
:101220003F832E83488159812417350730F42A8162
:101230003B81820F931F9F838E83023011F4111123
:10124000115080E01F5F1A8FDF91CF911F910F9196
:101250000895FC01CB01448D4423A1F050E0268188
:101260003781240F351F37832683628173812617C8
:10127000370720F02081318137832683668177818B
:101280000C948B130895EF92FF921F93CF93DF93EB
:10129000EC010FB6F8940F921E8D7C0181E1E80EEF
:1012A000F11C11165CF48989882341F0C7010E9462
:1012B000380F81110E94B90F1150F3CF8FEF8E8F2D
:1012C0000F900FBE0FB6F8940F921D8D7E0188E02F
:1012D000E80EF11C11165CF48885882341F0C701E3
:1012E0000E94380F81110E94B90F1150F3CF8FEF78
:1012F0008D8F0F900FBEDF91CF911F91FF90EF90D8
:101300000895CF93DF93EC010FB6F8940F922881E4
:1013100039819B8D4C8D949FC0011124F901E80FF8
:10132000F91FFB83EA831A8E3D832C83841B91096A
:10133000820F931F9F838E838FEF8D8F8E8F61110E
:101340000CC08885882389F0CE0108960E94380F4A
:10135000882359F00E94100808C0CE0108960E9408
:10136000DC06CE0141960E94DC060F900FBE81E0A4
:10137000DF91CF910895EF92FF921F93CF93DF9368
:101380001F92CDB7DEB7182F662321F0869FC001CC
:10139000112402C080E090E04F9669830E940812F9
:1013A0007C016981009789F0611104C0FC0191837F
:1013B000808304C04F96F70191838083F701138FD8
:1013C000648F61E0C7010E948109C7010F90DF911E
:1013D000CF911F91FF90EF900895AF92BF92CF925F
:1013E000DF92FF920F931F93CF93DF9300D000D033
:1013F0001F92CDB7DEB78C016B015D834C83F22E5B
:1014000090E0580188E0A80EB11C0FB6F8940F9236
:10141000F801228D838D281718F0F2E0FF1214C016
:101420004F2DB601C8010E94D408F8019189992373
:1014300021F0C80141960E94380F81110E941008C6
:101440000F900FBE81E050C02C813D81232B19F4F9
:101450000F900FBE48C0911104C0CE0101960E94AA
:10146000780F0F900FBE0E94450D0FB6F8940F92A3
:10147000F801858D8F3F09F4158EF801868D8F3F19
:1014800009F4168E0F900FBEBE016C5F7F4FCE0128
:1014900001960E94830F811121C00FB6F8940F921C
:1014A000F801928D838D0F900FBE981311C06C813F
:1014B0007D81C5010E94060FC8010E9443090E9458
:1014C000010E882311F091E0A0CF0E941008FBCFFD
:1014D000C8010E9443090E94010EF5CFC8010E9475
:1014E00043090E94010E80E00F900F900F900F9023
:1014F0000F90DF91CF911F910F91FF90DF90CF90D0
:10150000BF90AF900895EF92FF921F93CF93DF9318
:10151000EC019A8D8B8D981710F02230E1F47A014E
:101520001E8D422FCE010E94D4081F3F81F489896D
:10153000882379F0CE0141960E94380F882349F024
:10154000E114F10431F081E0F701808305C01F5FF1
:101550001E8F81E001C080E0DF91CF911F91FF904D
:10156000EF900895AF92BF92CF92DF92FF920F93C8
:101570001F93CF93DF9300D000D01F92CDB7DEB77B
:101580008C016B015D834C8390E0580181E1A80ED2
:10159000B11C0FB6F8940F92F801F28CFF20A9F05D
:1015A000B601C8010E942909FA94F801F28E8085DB
:1015B000882339F0C80108960E94380F81110E94D3
:1015C00010080F900FBE81E050C02C813D81232B6D
:1015D00019F40F900FBE48C0911104C0CE010196BE
:1015E0000E94780F0F900FBE0E94450D0FB6F89421
:1015F0000F92F801858D8F3F09F4158EF801868DC5
:101600008F3F09F4168E0F900FBEBE016C5F7F4FA7
:10161000CE0101960E94830F81111CC0C8010E9457
:10162000C908882389F06C817D81C5010E94060F5D
:10163000C8010E9443090E94010E882311F091E025
:10164000A8CF0E941008FBCFC8010E9443090E9446
:10165000010EF5CFC8010E9443090E94010EC80186
:101660000E94C908882359F380E00F900F900F90D3
:101670000F900F90DF91CF911F910F91FF90DF900E
:10168000CF90BF90AF900895CF93DF93EC010FB64A
:10169000F8940F928D8D8F3F09F41D8E8E8D8F3FA4
:1016A00009F41E8E0F900FBE8A8D811104C0CE01E9
:1016B00041960E94180FCE01DF91CF910C944309FF
:1016C000E091B201F091B3018081811103C08FEFED
:1016D0009FEF0CC0E091B201F091B3010580F6815B
:1016E000E02D0680F781E02D8281938190938A011D
:1016F000809389010895EF92FF920F931F93CF93E8
:10170000DF931F92CDB7DEB77C010091910110915C
:1017100092018091EA019091EB01029669830E9407
:10172000470769818FEFE816F80699F4662389F078
:101730006091EA017091EB016E5F7F4F84E991E067
:101740000F90DF91CF911F910F91FF90EF900C942C
:10175000EE06E00EF11EE091EA01F091EB01F3825A
:10176000E2826091EA017091EB01E016F10678F4F3
:101770008091B0019091B1016E5F7F4F0F90DF912A
:10178000CF911F910F91FF90EF900C940F078091D4
:10179000B2019091B3016E5F7F4F0E940F0780915D
:1017A000890190918A01E816F90620F4F0928A01E5
:1017B000E09289010F90DF91CF911F910F91FF90DF
:1017C000EF90089580919D01882309F10FB6F89458
:1017D0000F92E091A301F091A401C681D781CE01BF
:1017E00002960E9447078091930181508093930154
:1017F00080919D01815080939D010F900FBE8F8934
:10180000988D0E942712CE010E942712DBCF809173
:10181000C601823010F00E9410080E94A606D2CFA6
:101820005F926F927F928F929F92AF92BF92CF9270
:10183000DF92EF92FF920F931F93CF93DF935C01A0
:101840003B016A014901502ECA010E9408128C0115
:10185000892B09F4DBC088E290E00E940812EC01B9
:10186000892BB1F0188F0F8BA60165EA70E0C801D3
:101870000E94941321E0C21AD1088F89988DC80E56
:10188000D91EBE01675E7F4FF301C301089607C0F2
:10189000C8010E942712BAC0E817F90749F09F0152
:1018A0004191DB014D93BD01D9012C912111F4CF60
:1018B00018A2052D043008F003E00E8B09A31AA22C
:1018C0003E01B2E06B0E711CC3010E94EA06CE011C
:1018D0000C960E94EA06D987C88784E090E0801BB6
:1018E00091099D878C87DB8BCA8B1BA21CA21DA232
:1018F0001EA21FA2A401B501C6010E946B07998315
:101900008883E114F10419F0F701D183C0830FB685
:10191000F8940F92809193018F5F8093930180914F
:10192000EA019091EB01892BD1F5D093EB01C093A3
:10193000EA0180919301813009F041C086EC91E089
:101940000E94DC068FEC91E00E94DC0688ED91E0BD
:101950000E94DC0681EE91E00E94DC068DEB91E0B6
:101960000E94DC0684EB91E00E94DC0687EA91E0AD
:101970000E94DC068EE991E00E94DC0684E991E099
:101980000E94DC068DEB91E09093B3018093B2014D
:1019900084EB91E09093B1018093B00110C08091ED
:1019A0008F0181110CC0E091EA01F091EB01968961
:1019B0008E89891720F0D093EB01C093EA018091C2
:1019C0008B018F5F80938B018E8990919001981786
:1019D00010F480939001F9E08F9FC0011124B301AE
:1019E0008A539E4F0E94EE060F900FBE80918F018A
:1019F000882351F0E091EA01F091EB0196898E89FC
:101A0000981710F40E94100881E001C08FEFDF9159
:101A1000CF911F910F91FF90EF90DF90CF90BF90EB
:101A2000AF909F908F907F906F905F900895EF920E
:101A3000FF920F9387E8E82E81E0F82E00E020E087
:101A400030E045E550E068E271E082EE9BE00E9404
:101A5000100C8130B1F40E945810813091F4F89448
:101A60002FEF3FEF30938A012093890180938F01FC
:101A700010929201109291010F91FF90EF900C94AF
:101A8000D7070F91FF90EF900895809186018F5FA7
:101A90008093860108950FB6F8940F92809191017A
:101AA000909192010F900FBE0895CF92DF92EF9226
:101AB000FF920F931F93CF93DF9380918601811143
:101AC0008CC000919101109192010F5F1F4F1093F4
:101AD00092010093910101151105B9F48091B201B1
:101AE0009091B3012091B0013091B1013093B301D5
:101AF0002093B2019093B1018093B00180918C0149
:101B00008F5F80938C010E94600B8091890190917E
:101B10008A01C0E00817190708F44FC0D9E0E09126
:101B2000B201F091B3018081811103C08FEF9FEF6B
:101B300011C0E091B201F091B3010580F681E02D72
:101B4000E680F780D70112968D919C911397081724
:101B5000190728F490938A01809389012EC06701A8
:101B6000B2E0CB0ED11CC6010E944707F701848961
:101B70009589892B21F0C7010C960E944707D70150
:101B800056969C9180919001891710F49093900142
:101B9000D99FC0011124B6018A539E4F0E94EE06C0
:101BA000E091EA01F091EB01D70156969C9186896C
:101BB000981708F4B4CFC1E0B2CFE091EA01F091F8
:101BC000EB01E689B9E0EB9FF0011124EA53FE4FE7
:101BD0008081823040F0C1E006C080918E018F5F2D
:101BE00080938E01C0E080918D018111C1E08C2F26
:101BF000DF91CF911F910F91FF90EF90DF90CF90E9
:101C00000895EF92FF920F931F93CF93DF930FB638
:101C1000F8940F9280918601815080938601809183
:101C20008601882311F080E052C0809193018823BF
:101C3000D1F3C0E0D0E089E0F82EEE24E394809167
:101C4000A701882351F1E091AC01F091AD01C6816B
:101C5000D781CE010C960E9447078E010E5F1F4F61
:101C6000C8010E9447079E8980919001891710F44E
:101C700090939001F99EC0011124B8018A539E4FA0
:101C80000E94EE06E091EA01F091EB019E898689BF
:101C90009817A8F2E0928D01D2CFCD2B11F00E94BF
:101CA000600BC0918E01CC2351F0D1E00E94550D04
:101CB0008111D0938D01C150C9F710928E0180918E
:101CC0008D01882309F4AFCF0E94100881E00F90A6
:101CD0000FBEDF91CF911F910F91FF90EF9008956C
:101CE0000F931F93CF93DF938C01EB010E94450D5F
:101CF0004091910150919201F801608171819B01A5
:101D00002C0F3D1F4617570728F42617370748F4AE
:101D100091E004C091E02617370720F042175307DF
:101D200008F090E0F80131832083992331F060E0DE
:101D3000C901841B950B0E947B0B0E94010E81112F
:101D400002C00E941008DF91CF911F910F9108955A
:101D500080918601882321F081E080938D01089590
:101D600010928D01A091EA01B091EB01E091EA019E
:101D7000F091EB012D913C918789908D821793070B
:101D800060F06091EA017091EB018091EA0190911D
:101D9000EB01675E7F4F0E94CF068091900169E062
:101DA000482F50E0649F9001659F300D1124F90188
:101DB000EA53FE4F9081911102C08150F1CFA18171
:101DC000B28112960D90BC91A02DB283A1832753AE
:101DD0003E4FA217B30731F412962D913C91139701
:101DE0003283218399E0949FF001959FF00D112497
:101DF000EA53FE4F0180F281E02D26813781309336
:101E0000EB012093EA01809390010895CF93DF9333
:101E1000EB012091EA013091EB01B901645F7F4F42
:101E20000E940F0761E0CE01DF91CF910C947B0BF4
:101E30000F931F93CF93DF931F92CDB7DEB78B0124
:101E40002091EA013091EB01B901645F7F4F498332
:101E50000E94EE064981442311F00FEF1FEF642F1B
:101E6000C8010F90DF91CF911F910F910C947B0BC4
:101E70000F931F93CF93DF93DC011596ED91FC91A7
:101E80001697C681D7818E01045F1F4FC8010E943B
:101E9000470780918601811114C00A501109C801B9
:101EA0000E9447079E8980919001891710F49093B2
:101EB0009001B9E09B9FC0011124B8018A539E4F45
:101EC00003C0B80187EA91E00E94EE06E091EA01C2
:101ED000F091EB019E898689891720F481E0809337
:101EE0008D0101C080E0DF91CF911F910F91089586
:101EF00020918C01FC01208320919101309192016D
:101F0000328321830895CF93DF930FB6F8940F9215
:101F10004091910150919201DC011196ED91FC915B
:101F20001297EB01288139812F3FDFEF3D07C9F080
:101F3000B0918C01EC01A881BA1719F04E175F0718
:101F400090F44E1B5F0BFB014217530738F4241B20
:101F5000350B318320830E94780F03C011821082D9
:101F600002C080E001C081E00F900FBEDF91CF91F1
:101F7000089581E080938D01089580918F018823D9
:101F800031F080918601882321F080E0089581E07E
:101F9000089582E008950F931F93CF93DF93FC0180
:101FA000892B11F480E02CC082A1815082A3268964
:101FB00091A12917B9F38111F5CFEF018F010E5FC0
:101FC0001F4FC8010E94470799A19E8B492F50E0DF
:101FD00024E030E0241B350B3D872C878091900155
:101FE000891710F49093900129E0249FC001259F48
:101FF000900D1124B8018A539E4F0E94EE0681E095
:10200000DF91CF911F910F9108950FB6F8940F9221
:102010008091F0019091F101892BE9F48FEF91E02B
:102020000E94DC0686EF91E00E94DC068FEF91E0D3
:102030009093F5018093F40186EF91E09093F30182
:102040008093F20140E065E08AE00E94BB09909332
:10205000F1018093F0010F900FBE0895FC0173838E
:102060006283918780874617570778F0421B530B8E
:102070008485958548175907C8F4BF016E5F7F4F67
:102080008091F2019091F3010DC04217530718F4AB
:102090006217730758F4BF016E5F7F4F8091F401A0
:1020A0009091F5010E940F0780E0089581E0089566
:1020B000EF92FF920F930E9405108091F001909192
:1020C000F101892B81F08EEEE82E81E0F82E03E0FD
:1020D00020E030E045E550E06DE271E088E091E11C
:1020E0000E94100C01C080E00F91FF90EF900895C6
:1020F0000F931F93CF93DF9300D000D01F92CDB7E3
:10210000DEB7A091F001B091F101109729F1F9012A
:1021100069835B834A839D838C836630A4F40E9429
:10212000BD0FE091F001F091F10120E0823011F457
:10213000A80102C040E050E0BE016F5F7F4FCF01B9
:102140000E94ED090AC020E0AF01BE016F5F7F4F22
:10215000CD010E94830A01C080E00F900F900F9084
:102160000F900F90DF91CF911F910F910895EF92F3
:10217000FF920F931F93CF93DF93E091F401F091BF
:10218000F5018081882389F10580F681E02DE080CA
:10219000F180C681D7818E010E5F1F4FC8010E945A
:1021A0004707E989FA89CE0109958E85813029F79B
:1021B0002C853D852E0D3F1DE216F30660F43B8312
:1021C0002A83D987C887B8018091F4019091F501DD
:1021D0000E940F07D2CF00E010E020E030E0A7011E
:1021E00060E0CE010E947810C8CF8091F2019091FA
:1021F000F3019093F5018093F401F093F301E093E0
:10220000F201DF91CF911F910F91FF90EF90089510
:10221000CF93DF93CDB7DEB727970FB6F894DEBF25
:102220000FBECDBFE091F401F091F5018081DD2476
:10223000D394882339F0D12C0580F681E02DE080FD
:10224000F18002C0E12CF12C0E94450D0E944B0D43
:102250008C018091EC019091ED010817190720F491
:102260000E94B71081E001C080E01093ED0100935F
:10227000EC01811150C0D11036C00E151F05D0F1F0
:102280000E94010EE091F401F091F5010580F681C4
:10229000E02DC680D780C60102960E944707D6016E
:1022A0001E968C911E978130B1F41C966D917C9195
:1022B0001D976E0D7F1D9701A801C6010E942E106B
:1022C000882349F000E010E020E030E0A70160E062
:1022D000C6010E947810D6015196ED91FC9152975B
:1022E000C60109951EC0E091F201F091F3018081D1
:1022F00041E0811140E0B701601B710B8091F0015A
:102300009091F1010E94440B0E94010E811109C0BD
:102310000E94100806C00E94010E03C0898187FF39
:102320000EC040E050E0BE016F5F7F4F8091F00132
:102330009091F1010E94B20A8111F0CF73CFEC802D
:10234000FD80F70182859385892B21F0C7010296D4
:102350000E9447070E944B0DAC018091EC019091C7
:10236000ED014817590730F44E835F830E94B71080
:102370005F814E815093ED014093EC01E9810E2F76
:10238000EE0F110B220B330B0A30110550F6F8013A
:10239000E259FF4F0C9458122A813B81D7011C96B9
:1023A0006D917C911D97620F731FC7010E942E10C3
:1023B000882309F4B6CFD7015196ED91FC9152973D
:1023C000C7010995F7018685813009F0AACF4485B8
:1023D00055858A819B81480F591F00E010E020E05D
:1023E00030E060E0C7010E9478109BCF6A817B815A
:1023F000D7011D967C936E931C97640F751F9A01ED
:10240000C7010E942E108DCFC7010E94271289CFCD
:102410000F931F93CF93DF9300D0CDB7DEB789839F
:102420009A830E94450D89819A810E945E128C01D7
:102430000E94010E0115110511F40E94C206C80187
:102440000F900F90DF91CF911F910F910895CF932F
:10245000DF93009751F0EC010E94450DCE010E94E0
:10246000F312DF91CF910C94010EDF91CF9108957B
:10247000991B79E004C0991F961708F0961B881FD6
:102480007A95C9F780950895AA1BBB1B51E107C037
:10249000AA1FBB1FA617B70710F0A61BB70B881FF4
:1024A000991F5A95A9F780959095BC01CD01089583
:1024B000EE0FFF1F0590F491E02D0994CF93DF9369
:1024C0008230910510F482E090E0E0910C02F091EE
:1024D0000D0220E030E0C0E0D0E0309711F1408103
:1024E000518148175907C0F04817590761F4828194
:1024F0009381209719F09B838A832BC090930D02C0
:1025000080930C0226C02115310519F0421753079C
:1025100018F49A01BE01DF01EF010280F381E02D82
:10252000DCCF2115310509F1281B390B2430310589
:1025300090F412968D919C9113976115710521F07D
:10254000FB019383828304C090930D0280930C025D
:10255000FD01329644C0FD01E20FF31F8193919378
:10256000225031092D933C933AC020910A023091B8
:102570000B02232B41F4209102013091030130938F
:102580000B0220930A0220910001309101012115D4
:10259000310541F42DB73EB740910401509105013A
:1025A000241B350BE0910A02F0910B02E217F307AE
:1025B000A0F42E1B3F0B2817390778F0AC014E5FB3
:1025C0005F4F2417350748F04E0F5F1F50930B02E3
:1025D00040930A028193919302C0E0E0F0E0CF01C2
:1025E000DF91CF9108950F931F93CF93DF930097BF
:1025F00009F48CC0FC0132971382128200910C0204
:1026000010910D020115110581F420813181820F95
:10261000931F20910A0230910B022817390779F590
:10262000F0930B02E0930A0271C0D80140E050E041
:10263000AE17BF0750F412962D913C911397AD0140
:102640002115310509F1D901F3CF9D01DA01338359
:10265000228360817181860F971F8217930769F427
:10266000EC0128813981260F371F2E5F3F4F3183C0
:1026700020838A819B8193838283452B29F4F09365
:102680000D02E0930C0242C01396FC93EE93129756
:10269000ED01499159919E01240F351FE217F3076F
:1026A00071F480819181840F951F029611969C93FD
:1026B0008E938281938113969C938E931297E0E080
:1026C000F0E0D80112968D919C911397009719F024
:1026D000F8018C01F6CF8D919C9198012E5F3F4FB0
:1026E000820F931F20910A0230910B02281739079D
:1026F00069F4309729F410920D0210920C0202C076
:102700001382128210930B0200930A02DF91CF9181
:102710001F910F910895FB01DC0102C001900D9201
:1027200041505040D8F70895DC0101C06D934150ED
:0A2730005040E0F70895F894FFCF41
:10273A0000000E0220000101010112000101E2075E
:10274A00E8035461736B5374617465005461736B6D
:10275A00446973706C61790049444C4500546D7248
:06276A002053766300001D
:00000001FF
